:020000040800F2
:1000000000000220313F0008813F0008813F0008C6
:10001000813F0008813F0008813F00080000000088
:10002000000000000000000000000000B1320008E5
:10003000813F00080000000051330008BD3E000869
:10004000813F0008813F0008813F0008813F000890
:10005000813F0008813F0008813F0008813F000880
:10006000813F0008813F0008813F0008813F000870
:10007000813F0008813F0008813F0008813F000860
:10008000C53E0008813F0008813F0008813F00080D
:10009000813F0008813F0008813F0008813F000840
:1000A000813F0008D53E0008813F0008813F0008DD
:1000B000813F0008813F0008813F0008813F000820
:1000C000813F0008813F0008813F0008813F000810
:1000D000813F0008813F0008813F0008813F000800
:1000E000813F0008813F0008813F0008813F0008F0
:1000F000813F0008813F0008813F0008813F0008E0
:10010000813F0008813F0008813F0008813F0008CF
:10011000813F0008813F0008813F0008813F0008BF
:10012000813F0008813F0008813F0008813F0008AF
:10013000813F0008813F0008813F0008813F00089F
:10014000813F0008813F0008813F0008813F00088F
:10015000813F0008813F0008813F0008813F00087F
:10016000813F0008813F0008813F0008813F00086F
:10017000813F0008813F0008813F00080000000027
:08018000813F0008813F0008E7
:1001900010B5054C237833B9044B13B10448AFF3C1
:1001A00000800123237010BD140000200000000017
:1001B000E43F000808B5034B1BB103490348AFF304
:1001C000008008BD0000000018000020E43F000887
:1001D00053B94AB9002908BF00281CBF4FF0FF31AE
:1001E0004FF0FF3000F072B9ADF1080C6DE904CEAC
:1001F00000F006F8DDF804E0DDE9022304B0704702
:100200002DE9F047089E04468846002B4BD18A42D0
:10021000154667D9B2FA82F24AB1C2F1200701FA53
:1002200002F320FA07F7954047EA030894404FEAA3
:10023000154E230CB8FBFEF71FFA85FC0EFB178842
:1002400043EA084307FB0CF1994209D9EB1807F17F
:10025000FF3080F01B81994240F21881023F2B440D
:100260005B1AA4B2B3FBFEF00EFB103344EA034466
:1002700000FB0CFCA44509D92C1900F1FF3380F0D8
:100280000781A44540F2048102382C4440EA07402B
:10029000A4EB0C0400271EB1D4400023C6E90043A0
:1002A0003946BDE8F0878B4209D9002E00F0EB807B
:1002B0000027C6E9000138463946BDE8F087B3FAA1
:1002C00083F7002F47D18B4202D3824200F2FA809B
:1002D000841A61EB030301209846002EE0D0C6E9A2
:1002E0000048DDE702B9FFDEB2FA82F2002A40F0F0
:1002F0008F80491B4FEA154E1FFA85F80127B1FB85
:10030000FEFC230C0EFB1C1143EA014308FB0CF11D
:10031000994207D9EB180CF1FF3002D2994200F252
:10032000CD808446591AA3B2B1FBFEF00EFB101427
:1003300043EA044408FB00F8A04507D92C1900F152
:10034000FF3302D2A04500F2B6801846A4EB0804A1
:1003500040EA0C409FE7C7F1200CBB4022FA0CFE9C
:100360004EEA030E01FA07F420FA0CF521FA0CF319
:100370004FEA1E482543B3FBF8F92C0C08FB193350
:100380001FFA8EFA44EA034309FB0AF49C4202FA7C
:1003900007F200FA07F10BD91EEB030309F1FF3056
:1003A00080F087809C4240F28480A9F10209734466
:1003B0001B1BADB2B3FBF8F008FB103345EA034456
:1003C00000FB0AFAA24508D91EEB040400F1FF3332
:1003D0006BD2A24569D90238744440EA0940A0FBB7
:1003E0000289A4EB0A044C45C2464B4654D351D073
:1003F000002E69D0B1EB0A0564EB030404FA0CFC8F
:10040000FD40FC404CEA0505C6E90054002747E7DB
:10041000C2F1200320FA03F7954001FA02F021FA15
:1004200003F34FEA154E3843010CB3FBFEF71FFAF6
:1004300085F80EFB173341EA034107FB08F38B42B3
:1004400004FA02F407D9691807F1FF3C2FD28B4256
:100450002DD9023F2944CB1A81B2B3FBFEF00EFB2B
:10046000103341EA034100FB08F38B4207D96918B6
:1004700000F1FF3C17D28B4215D902382944C91A22
:1004800040EA07473BE73746304609E70746E7E6D5
:100490001846FBE64145ABD2B8EB020A69EB0E0207
:1004A00001381346A4E76046E9E7184695E7674632
:1004B000D1E781467CE702382C4447E7ACF1020CD7
:1004C0002B442FE7384608E73746E9E6704700BF78
:1004D00008B50B4B1A6842F400721A601A6842F4AD
:1004E00080621A601A6842F480721A60032000F079
:1004F0001BF8002003F0A4FC03F00CFC002008BD56
:10050000003C0240034A1168034B1B780B44136004
:10051000704700BFBC3D002000000020014B186860
:10052000704700BFBC3D0020074AD36823F4E06356
:100530001B041B0C000200F4E060184340F0BF6095
:1005400040F40030D060704700ED00E030B4174B4D
:10055000DB68C3F30223C3F10704042C28BF04247F
:100560001D1D062D18D9033B4FF0FF3505FA04F485
:1005700021EA0401994005FA03F322EA030319432F
:1005800000280BDB0901C9B200F1604000F56140B1
:1005900080F8001330BC70470023E5E700F00F003F
:1005A0000901C9B2024B1954F4E700BF00ED00E0A5
:1005B00014ED00E000F01F02400901239340024ABD
:1005C00042F82030704700BF00E100E00138B0F190
:1005D000807F0AD2064B5860064AF02182F8231029
:1005E0000020986007221A6070470120704700BF02
:1005F00010E000E000ED00E0042805D0054A136893
:1006000023F0040313607047024A136843F00403A5
:100610001360704710E000E030B405682C6824F4E3
:1006200080242C60046863608368402B05D00368D5
:1006300099600368DA6030BC704703689A600368A9
:10064000D960F8E70268D3B2103B0B49A1FB031352
:100650001B090A49C95CC165032B06D822F47F72C5
:1006600022F003028265806D704722F47F7222F0CF
:10067000030204328265F6E7ABAAAAAAFC3F00088F
:10068000836A826992B9012B0AD01BB1022B01D077
:1006900000207047C36A13F0807F2CD10020704780
:1006A000C36AB3F1C07F28D000207047B2F5005F65
:1006B00005D0022B29D9032B15D000207047032B1E
:1006C00003D8DFE803F01C041C0A00207047C36A4B
:1006D00013F0807F15D100207047C36AB3F1C07F4B
:1006E00011D000207047C36A13F0807F01D0012031
:1006F000704700207047012070470120704701209B
:1007000070470120704701207047012070470000AA
:1007100070B50446FFF702FF002C5BD005460023AE
:1007200084F83430022384F835302268136823F0CB
:100730000103136023681A6812F0010F0AD0FFF753
:10074000EDFE401B0528F5D920236365032084F8BE
:10075000350070BD1A68204810406168A2680A43DD
:10076000E1680A4321690A4361690A43A1690A43AE
:10077000E1690A43216A0A430243616A04291ED0DF
:100780001A602668756925F00705636A1D43042B06
:1007900007D1A36A1D43E36A1BB12046FFF770FF30
:1007A00090B975612046FFF74DFFE26D3F239340FE
:1007B000836000206065012384F83530C9E7E16A71
:1007C000206B01430A43DBE740236365012084F883
:1007D0003500BEE70120BCE73F8010F038B5856DDD
:1007E00090F83440012C31D0012480F8344090F846
:1007F0003540E4B2012C04D0002380F834300220CC
:1008000038BD0446022084F835000020606520468B
:10081000FFF702FFE26D3F239340AB60226813684D
:1008200043F0160313602268536943F08003536159
:10083000236C23B12268136843F008031360226815
:10084000136843F0010313600020D9E70220D7E7C3
:10085000F0B583B0044600230193724B1D68724BC0
:10086000A3FB0535AD0A876D3E68C26D0823934032
:10087000334210D003681A6812F0040F0BD01A68C4
:1008800022F004021A60C26D08239340BB60436DDE
:1008900043F001034365E26D01239340334209D0E5
:1008A0002268526912F0800F04D0BB60636D43F080
:1008B00002036365E26D04239340334209D022684A
:1008C000126812F0020F04D0BB60636D43F00403A2
:1008D0006365E26D10239340334224D0226812688E
:1008E00012F0080F1FD0BB6023681A6812F4802F23
:1008F0000DD01B6813F4002F04D1236C9BB120464C
:10090000984710E0A36C73B1204698470BE01A6833
:1009100012F4807F03D11A6822F008021A60236C57
:100920000BB120469847E26D20239340334255D0C7
:100930002268126812F0100F50D0BB6094F8353066
:10094000DBB2052B0ED023681A6812F4802F33D047
:100950001B6813F4002F2AD1636C002B3ED0204675
:1009600098473BE02268136823F01603136022685F
:10097000536923F080035361236CA3B12268136889
:1009800023F008031360E26D3F239340BB60002314
:1009900084F83430012384F83530236D002B3FD0A8
:1009A000204698473CE0A36C002BE7D1EBE7E36BD4
:1009B000A3B12046984711E01A6812F4807F09D14C
:1009C0001A6822F010021A60002384F834300123E0
:1009D00084F83530E36B0BB120469847636DFBB16B
:1009E000636D13F0010F17D0052384F835302268AA
:1009F000136823F001031360019B01330193AB42A1
:100A000004D823681B6813F0010FF5D1002384F884
:100A10003430012384F83530E36C0BB1204698471D
:100A200003B0F0BD10000020B5814E1B00230F2B3A
:100A300000F2D780F0B482B039E0072200E0002253
:100A4000B2403A430234674E46F82420664A14689E
:100A5000EA4302EA04064F6817F4803F01D045EAF2
:100A60000406614C2660646802EA04064F6817F4C5
:100A7000003F01D045EA04065B4C6660A46802EAC8
:100A800004064F6817F4801F01D045EA0406564C4F
:100A9000A660E46822404E6816F4001F01D045EAC3
:100AA0000402514CE26001330F2B00F297800122C7
:100AB0009A400C6804EA0205AA42F4D14C68022C60
:100AC00001D0122C10D1DE08083650F826C003F0F1
:100AD0000704A7000F24BC402CEA040C0C69BC409E
:100AE00044EA0C0440F8264004685F000326BE4038
:100AF000F64306EA040C4C6804F00304BC4044EAE4
:100B00000C0404604C6804F1FF3CBCF1010F03D9F4
:100B1000112C01D0122C10D1846806EA040CCC6888
:100B2000BC4044EA0C048460446824EA02024C6835
:100B3000C4F300149C4014434460C26816408A68A1
:100B4000BA403243C2604A6812F0805FABD00022E4
:100B50000192264A546C44F480445464526C02F46A
:100B600080420192019A9C08A61C1E4A52F82670E7
:100B700003F0030296000F22B24027EA02071C4A44
:100B800090423FF45CAF02F5806290421AD002F5C9
:100B90008062904218D002F58062904216D002F531
:100BA0008062904214D002F58062904212D002F529
:100BB0008062904210D002F5806290423FF43DAFD7
:100BC00008223DE701223BE7022239E7032237E70B
:100BD000042235E7052233E7062231E702B0F0BCF4
:100BE0007047704700380140003C01400038024027
:100BF000000002400369194201D100207047012022
:100C0000704712B909048161704781617047436977
:100C10005940416170470000002800F0BB8170B569
:100C200082B00446036813F0010F3BD0A74B9B68CA
:100C300003F00C03042B2CD0A44B9B6803F00C0393
:100C4000082B21D06368B3F5803F4FD0B3F5A02FB8
:100C500052D09E4B1A6822F480321A601A6822F42D
:100C600080221A606368002B50D0FFF757FC0546BE
:100C7000964B1B6813F4003F14D1FFF74FFC401B49
:100C80006428F5D903208AE1904B5B6813F4800F48
:100C9000D8D08E4B1B6813F4003F03D06368002B41
:100CA00000F07A81236813F0020F55D0874B9B68C0
:100CB00013F00C0F3ED0854B9B6803F00C03082B00
:100CC00033D0E368002B68D0814B01221A60FFF714
:100CD00025FC05467D4B1B6813F0020F54D1FFF72E
:100CE0001DFC401B0228F5D9032058E1774A136800
:100CF00043F480331360B5E7744B1A6842F48022E2
:100D00001A601A6842F480321A60ABE7FFF706FCFB
:100D100005466E4B1B6813F4003FC3D0FFF7FEFB84
:100D2000401B6428F5D9032039E1684B5B6813F454
:100D3000800FC6D1654B1B6813F0020F04D0E36827
:100D4000012B01D001202AE1604A136823F0F80347
:100D5000216943EAC1031360236813F0080F40D0F0
:100D6000636963B35B4B01221A60FFF7D7FB05464B
:100D7000564B5B6F13F0020F33D1FFF7CFFB401BD5
:100D80000228F5D903200AE1504A136823F0F8033A
:100D9000216943EAC1031360DEE74D4B00221A606C
:100DA000FFF7BCFB0546494B1B6813F0020FD3D07D
:100DB000FFF7B4FB401B0228F5D90320EFE0454BB9
:100DC00000221A60FFF7AAFB0546404B5B6F13F049
:100DD000020F06D0FFF7A2FB401B0228F5D9032023
:100DE000DDE0236813F0040F79D0384B1B6C13F04F
:100DF000805F33D100230193344B1A6C42F0805250
:100E00001A641B6C03F080530193019B0125324B44
:100E10001B6813F4807F23D0A368012B34D0052BEB
:100E200038D02A4B1A6F22F001021A671A6F22F08B
:100E300004021A67A368002B36D0FFF76FFB064643
:100E4000224B1B6F13F0020F48D1FFF767FB801B8B
:100E500041F288339842F3D90320A0E00025D6E779
:100E60001D4A136843F480731360FFF757FB06466F
:100E7000194B1B6813F4807FCED1FFF74FFB801B0B
:100E80000228F5D903208AE0104A136F43F00103CA
:100E90001367CFE70D4B1A6F42F004021A671A6FFF
:100EA00042F001021A67C5E7FFF738FB0646074B19
:100EB0001B6F13F0020F11D0FFF730FB801B41F2C4
:100EC00088339842F3D9032069E000BF003802401C
:100ED00000004742800E474200700040E5B9A36918
:100EE000002B5BD0304A926802F00C02082A58D0DE
:100EF000022B17D02D4B00221A60FFF70FFB044680
:100F0000294B1B6813F0007F42D0FFF707FB001B43
:100F10000228F5D9032042E0234A136C23F08053C2
:100F20001364DCE7214B00221A60FFF7F7FA05464D
:100F30001D4B1B6813F0007F06D0FFF7EFFA401B34
:100F40000228F5D903202AE0E369226A1343626A82
:100F500043EA8213A26A5208013A43EA0243E26A70
:100F600043EA0263104A5360104B01221A60FFF7F4
:100F7000D5FA04460C4B1B6813F0007F06D1FFF72F
:100F8000CDFA001B0228F5D9032008E0002006E076
:100F9000002004E001207047012000E0002002B0A2
:100FA00070BD0120FBE700BF0038024060004742EF
:100FB000324B9B6803F00C03042B5CD0082B01D050
:100FC0002F4870472DE9F04B2C4B5A6802F03F0236
:100FD0005B6813F4800F2BD0284B5B68C3F3881336
:100FE0001E4600275C010025E41A65EB0705A901F0
:100FF00041EA9461A001001B61EB0501CB0043EACB
:101000005073C400A01943EB07014B0243EAD053CD
:101010004402204619460023FFF7DAF8174B5B68B5
:10102000C3F3014301335B00B0FBF3F0BDE8F08B89
:10103000124B5B68C3F388131E4600275C01002532
:10104000E41A65EB0705A90141EA9461A001001BC0
:1010500061EB0501CB0043EA5073C400A01943EBD8
:1010600007018B0243EA905384022046194600236D
:10107000FFF7AEF8D2E70348704700BF00380240E0
:101080000024F40000127A00002800F09D8070B562
:1010900004464F4B1B6803F00F038B4209D2CBB2BF
:1010A0004B4A1370136803F00F038B4201D00120E9
:1010B00070BD236813F0020F17D013F0040F04D093
:1010C000444A936843F4E0539360236813F0080F95
:1010D00004D0404A936843F4604393603D4A936868
:1010E00023F0F003A068034393600D46236813F0D8
:1010F000010F32D06368012B21D09A1E012A25D915
:10110000344A126812F0020F60D032498A6822F025
:10111000030213438B60FFF701FA06462D4B9B68D1
:1011200003F00C036268B3EB820F16D0FFF7F6F9F9
:10113000801B41F288339842F0D90320B8E7254A52
:10114000126812F4003FE0D10120B1E7214A126891
:1011500012F0007FD9D10120AAE71D4B1B6803F0D4
:101160000F03AB4209D9EAB2194B1A701B6803F09E
:101170000F03AB4201D001209AE7236813F0040F5C
:1011800006D0144A936823F4E053E1680B4393605C
:10119000236813F0080F07D00E4A936823F46043C6
:1011A000216943EAC1039360FFF702FF094B9B6883
:1011B000C3F30313084AD35CD840084B18600020DF
:1011C00002F03EFE002073E70120704701206FE728
:1011D000003C0240003802401C4000081000002083
:1011E000014B1868704700BF1000002008B5FFF7DA
:1011F000F7FF044B9B68C3F38223034AD35CD840B8
:1012000008BD00BF003802402C40000808B5FFF7B9
:10121000E7FF044B9B68C3F34233034AD35CD840D7
:1012200008BD00BF003802402C4000080F230360B7
:101230000B4B9A6802F0030242609A6802F0F002D7
:1012400082609A6802F4E052C2609B68DB0803F493
:10125000E0530361034B1B6803F00F030B607047FF
:1012600000380240003C024070470268D36843F0F7
:101270000103D3600268136843F001031360002088
:101280007047704770477047704710B50446036851
:101290001A6912F0020F11D0DA6812F0020F0DD0A5
:1012A0006FF002021A610123037603689B6913F051
:1012B000030F70D0FFF7E6FF0023237623681A6937
:1012C00012F0040F12D0DA6812F0040F0ED06FF093
:1012D00004021A610223237623689B6913F4407F7A
:1012E0005FD02046FFF7CEFF0023237623681A69DC
:1012F00012F0080F12D0DA6812F0080F0ED06FF05B
:1013000008021A61042323762368DB6913F0030FB4
:101310004ED02046FFF7B6FF0023237623681A69D4
:1013200012F0100F12D0DA6812F0100F0ED06FF01A
:1013300010021A61082323762368DB6913F4407FC7
:101340003DD02046FFF79EFF0023237623681A69CD
:1013500012F0010F03D0DA6812F0010F36D12368C2
:101360001A6912F0800F03D0DA6812F0800F34D1BE
:1013700023681A6912F0400F03D0DA6812F0400FA8
:1013800032D123681A6912F0200F03D0DA6812F004
:10139000200F30D110BDFFF774FF2046FFF773FF19
:1013A0008AE72046FFF76DFF2046FFF76CFF9BE7BB
:1013B0002046FFF766FF2046FFF765FFACE72046B3
:1013C000FFF75FFF2046FFF75EFFBDE76FF001020A
:1013D0001A61204602F0BCFBC1E76FF080021A617F
:1013E000204600F089F8C3E76FF040021A612046FA
:1013F000FFF74AFFC5E76FF020021A61204600F0B0
:101400007AF8C7E703682E4A904212D0B0F1804FB5
:101410000FD0A2F57C4290420BD002F58062904240
:1014200007D002F58062904203D002F578429042E4
:1014300003D123F070034A681343214A90422AD013
:10144000B0F1804F27D0A2F57C42904223D002F524
:10145000806290421FD002F5806290421BD002F55C
:101460007842904217D002F57052904213D002F5A4
:10147000806290420FD002F5806290420BD0A2F5BC
:101480009832904207D002F58062904203D002F574
:101490008062904203D123F44073CA68134303600F
:1014A0008B68C3620B688362054B984203D003F5D7
:1014B0008063984201D10B69036301234361704744
:1014C00000000140A8B110B5044690F839305BB176
:1014D000022384F83930211D2068FFF793FF012390
:1014E00084F83930002010BD80F83830FFF7BCFE9A
:1014F000EEE701207047704770470268D36823F019
:10150000C003D360202380F8393070470268D36865
:1015100023F49073D3600268536923F0010353618D
:10152000202380F83A3070472DE9F84304460168DB
:101530000A6922F44052C36813430B610168CA6808
:1015400022F4164222F00C028368006903436069AA
:101550000343E06903431343CB6021684A6922F4E3
:101560004072A36913434B61E369B3F5004F60D048
:101570002368B84A934200F0148102F580629342D6
:1015800000F00F81FFF732FE00EB800000EB8000DF
:101590006568AD00B0FBF5F5AF4FA7FB05356D09EC
:1015A0002E01FFF723FE00EB800000EB8000656852
:1015B000AD00B0FBF5F9FFF719FE00EB800000EB82
:1015C00080006568AD00B0FBF5F5A7FB05356D093A
:1015D0004FF0640808FB15952D013235A7FB053542
:1015E0006D0905F0F0053544FFF700FE00EB8000C3
:1015F00000EB80006668B600B0FBF6F6FFF7F6FD7C
:1016000000EB800000EB800063689B00B0FBF3F010
:10161000A7FB0030400908FB10684FEA081808F1E2
:101620003208A7FB0837C7F3431723682F449F608E
:101630000DE12368874A93425BD002F580629342B2
:1016400057D0FFF7D3FD00EB800000EB800065680A
:101650006D00B0FBF5F5804FA7FB05356D092E0138
:10166000FFF7C4FD00EB800000EB800065686D00B3
:10167000B0FBF5F9FFF7BAFD00EB800000EB80004E
:1016800065686D00B0FBF5F5A7FB05356D094FF0FA
:10169000640808FB1595ED003235A7FB05356D098B
:1016A0006D0005F4F8753544FFF7A0FD00EB8000F0
:1016B00000EB800066687600B0FBF6F6FFF796FD5B
:1016C00000EB800000EB800063685B00B0FBF3F38D
:1016D000A7FB03235B0908FB13684FEAC80808F15E
:1016E0003208A7FB0837C7F3421723682F449F60CF
:1016F000ADE0FFF78BFD00EB800000EB800065683C
:101700006D00B0FBF5F5544FA7FB05356D092E01B3
:10171000FFF77CFD00EB800000EB800065686D004A
:10172000B0FBF5F9FFF772FD00EB800000EB8000E5
:1017300065686D00B0FBF5F5A7FB05356D094FF049
:10174000640808FB1595ED003235A7FB05356D09DA
:101750006D0005F4F8753544FFF758FD00EB800087
:1017600000EB800066687600B0FBF6F6FFF74EFDF2
:1017700000EB800000EB800063685B00B0FBF3F3DC
:10178000A7FB03235B0908FB13684FEAC80808F1AD
:101790003208A7FB0837C7F3421723682F449F601E
:1017A00055E0FFF733FD00EB800000EB800065683B
:1017B000AD00B0FBF5F5284FA7FB05356D092E01EF
:1017C000FFF724FD00EB800000EB80006568AD00B2
:1017D000B0FBF5F9FFF71AFD00EB800000EB80008D
:1017E0006568AD00B0FBF5F5A7FB05356D094FF059
:1017F000640808FB15952D013235A7FB05356D09E9
:1018000005F0F0053544FFF701FD00EB800000EB2B
:1018100080006668B600B0FBF6F6FFF7F7FC00EB59
:10182000800000EB800063689B00B0FBF3F0A7FB37
:101830000030400908FB10684FEA081808F1320828
:10184000A7FB0837C7F3431723682F449F60BDE801
:10185000F88300BF001001401F85EB512DE9F041D6
:1018600005460F4616469846069C2B681B6837EAC5
:1018700003030CBF01230023B3421DD1B4F1FF3F8A
:10188000F3D02CB1FEF74AFEA0EB0800A042ECD941
:101890002A68D36823F4D073D3602A68536923F08D
:1018A00001035361202385F8393085F83A3000234D
:1018B00085F83830032000E00020BDE8F08158B3FF
:1018C00010B5044690F839300BB3242384F839302E
:1018D0002268D36823F40053D3602046FFF724FE28
:1018E0002268136923F4904313612268536923F03B
:1018F0002A0353612268D36843F40053D360002065
:10190000E063202384F8393084F83A3010BD80F841
:10191000383002F049FAD8E7012070472DE9F0414C
:1019200082B01E4690F83930DBB2202B55D10446E8
:101930000D469046002955D0002A55D090F83830F1
:10194000012B53D0012380F838300023C3632123B7
:1019500080F83930FEF7E2FD0746A4F82480A4F8A9
:10196000268010E000963B46002280212046FFF7AB
:1019700075FF00283CD12B882268C3F3080353600D
:101980002369C3B90235E38C9BB2B3B1E38C013B4D
:101990009BB2E384A368B3F5805FE3D000963B4637
:1019A000002280212046FFF759FF18BB2A782368C0
:1019B0005A600135E7E70135E5E700963B4600222E
:1019C00040212046FFF74AFF0346A8B9202284F8A9
:1019D0003920002284F8382000E00223184602B0A3
:1019E000BDE8F0810123F9E70123F7E70223F5E7DA
:1019F0000323F3E70323F1E70323EFE730B583B0D5
:101A000090F83A40E4B2202C3DD100293ED0002A83
:101A10003ED090F83830012B3CD013460A4604469D
:101A2000012180F83810826283850025C563222158
:101A300080F83A10416B1848C863616B1748086416
:101A4000616B1748C864616B0D6521680431606B78
:101A5000FEF7C4FE019523681A6801925A68019244
:101A6000019A84F83850DA6842F48072DA602268A9
:101A7000536943F0010353612268536943F0400303
:101A80005361284600E0022003B030BD0120FBE78F
:101A90000120F9E70220F7E7A51A0008E51A000877
:101AA000F11A000808B5836B0268126812F4807F8F
:101AB00013D10022DA851968CA6822F48072CA60DC
:101AC00019684A6922F001024A6119684A6922F0DC
:101AD00040024A61202283F83A20184602F00AF8B0
:101AE00008BD704708B5806BFFF7FBFF08BD704766
:101AF00010B5846B23685A6994F83930DBB2212B16
:101B000010D023685A6902F0400294F83A30DBB2F0
:101B1000222B11D0E36B43F01003E3632046FFF761
:101B2000E6FF10BD02F08002002AEAD00023E38421
:101B30002046FFF7E2FCE4E7002AEBD00023E38530
:101B40002046FFF7E3FCE5E7842801D00330704727
:101B500000207047EFF30580003018BF0120704768
:101B600008B500F08DFD002008BDF0B585B00F462A
:101B7000446805680669B0F90800FFF7E5FF03ABA4
:101B8000019300903B46B2B22946204600F046FD44
:101B9000012802D1039805B0F0BD0020FBE708B58D
:101BA000034600B90123184600F0B6FE002008BD28
:101BB00000B583B01346012909D0002201680091C5
:101BC0000121044801F098F903B05DF804FB0122FB
:101BD000F4E700BF3840000830B585B00546002363
:101BE00003930C4601B90124FFF7B4FFA8B1002309
:101BF000009303AB22460921284601F097F90128FA
:101C000017D1039BBBB10E4B4FF080521A60BFF34C
:101C10004F8FBFF36F8F002009E00023009322460F
:101C20000421284601F082F9012806D1002005B0E0
:101C300030BDFF20FBE70020F9E7FF20F7E700BFFA
:101C400004ED00E010B584B0044600230393FFF7D1
:101C500081FFA0B10022009203AB0821204601F0D1
:101C600065F9012817D1039BBBB10E4B4FF0805291
:101C70001A60BFF34F8FBFF36F8F002009E000227F
:101C8000009213460321204601F050F9012806D1A5
:101C9000002004B010BDFF20FBE70020F9E7FF2083
:101CA000F7E700BF04ED00E008B500F0B7FF01283A
:101CB00001D001F07FFB08BD00F1080343604FF045
:101CC000FF328260C360036100230360704700231A
:101CD0000361704743684B609A688A609A685160F4
:101CE00099600861036801330360704730B40D6880
:101CF000B5F1FF3F02D000F1080202E0026904E002
:101D00001A4653681C68AC42FAD953684B60996014
:101D10008A605160086103680133036030BC70471A
:101D200003694268816891608268416851605A68BD
:101D3000824205D00022026118680138186070479D
:101D400082685A60F6E710B5044601F0C3FAA26B48
:101D5000E36B9A4204D0002401F0DEFA204610BD65
:101D60000124F9E710B5044601F0B4FAA36B23B1DE
:101D7000002401F0D1FA204610BD0124F9E770B526
:101D800004461646856B026C5AB903681BB10020E5
:101D90000135A56370BD406800F0A6FF00236360B5
:101DA000F6E76EB9806802F011F9226CA36813445B
:101DB000A3606268934219D32368A3600020E7E719
:101DC000C06802F003F9226C5242E3681344E360F6
:101DD00021688B4202D263681A44E260022E01D06D
:101DE0000020D5E725B1013D0020D1E70020CFE755
:101DF0000020CDE7026C72B110B5C3681344C36014
:101E00004468A34201D30368C3600C46C1682046FE
:101E100002F0DCF810BD704738B5054601F05AFAFB
:101E200095F8454064B203E000F0F0FE013C64B276
:101E3000002C08DD6B6A33B105F1240000F050FE80
:101E40000028F3D0F0E7FF2385F8453001F064FA6D
:101E500001F040FA95F8444064B203E000F0D6FE89
:101E6000013C64B2002C08DD2B6933B105F1100090
:101E700000F036FE0028F3D0F0E7FF2385F8443069
:101E800001F04AFA38BD000038B540B94FF05003B0
:101E900083F31188BFF36F8FBFF34F8FFEE70446C4
:101EA0000D4601F017FA2168E26B236C03FB021068
:101EB00060600020A063A160013A02FB0313E360AD
:101EC000FF2384F8443084F84530A5B923691BB951
:101ED00001F022FA012038BD04F1100000F000FEEC
:101EE0000028F5D0084B4FF080521A60BFF34F8F97
:101EF000BFF36F8FECE704F11000FFF7DDFE04F194
:101F00002400FFF7D9FEE3E704ED00E010B5029BE3
:101F10000C4639B11A60D8631C6401211846FFF7DA
:101F2000B3FF10BD1B60F6E740B94FF0500383F3D9
:101F30001188BFF36F8FBFF34F8FFEE7F0B583B00B
:101F4000054611B101FB00F000E0002017460C46E9
:101F5000483001F04BFB064638B100903B4600F19B
:101F6000480221462846FFF7D1FF304603B0F0BDB6
:101F7000F0B585B0019260B1044699B9026C8AB19E
:101F80004FF0500383F31188BFF36F8FBFF34F8F70
:101F9000FEE74FF0500383F31188BFF36F8FBFF359
:101FA0004F8FFEE7022B0BD1E26B012A08D04FF0D6
:101FB000500383F31188BFF36F8FBFF34F8FFEE79A
:101FC0001E460F4600F02AFE50B9019B53B14FF058
:101FD000500383F31188BFF36F8FBFF34F8FFEE77A
:101FE00000253AE0002538E0324639462046FFF722
:101FF000C6FE636A4BB9A8B13B4B4FF080521A60E2
:10200000BFF34F8FBFF36F8F0CE004F1240000F09B
:1020100067FD38B1344B4FF080521A60BFF34F8FD9
:10202000BFF36F8F01F078F9012005B0F0BD01F02A
:1020300073F90020F9E702A800F094FD012519E0EA
:10204000002384F8443021E0002384F8453023E065
:102050002046FFF7E1FE00F0E7FB01F03BF9A26B41
:10206000E36B9A42C0D3022EBED0019B002BDED080
:10207000002DE0D001F050F900F040FB01F02AF90A
:1020800094F844305BB2B3F1FF3FD9D094F84530B7
:102090005BB2B3F1FF3FD7D001F03EF901A902A82E
:1020A00000F074FDC8B92046FFF74DFE0028CFD0E0
:1020B000019904F1100000F0DBFC2046FFF7ACFEB4
:1020C00000F0B2FB0028C8D1074B4FF080521A60D5
:1020D000BFF34F8FBFF36F8FBFE72046FFF79CFE24
:1020E00000F0A2FB0020A0E704ED00E02DE9F8439A
:1020F00060B1044699B9006C88B14FF0500383F386
:102100001188BFF36F8FBFF34F8FFEE74FF050037F
:1021100083F31188BFF36F8FBFF34F8FFEE7022B5E
:102120000BD1E06B012808D04FF0500383F31188E6
:10213000BFF36F8FBFF34F8FFEE71F469046894670
:1021400001F0D8F9EFF311864FF0500383F31188B3
:10215000BFF36F8FBFF34F8FA26BE36B9A4203D332
:10216000022F01D000200FE094F845506DB23A469E
:1021700049462046FFF703FEB5F1FF3F08D06B1C30
:102180005BB284F84530012086F31188BDE8F883FE
:10219000636A5BB104F1240000F0A2FC40B1B8F125
:1021A000000F07D00120C8F80000EDE70120EBE7A1
:1021B0000120E9E70120E7E72DE9F04184B0019231
:1021C00060B1044699B9026C8AB14FF0500383F3B1
:1021D0001188BFF36F8FBFF34F8FFEE74FF05003AF
:1021E00083F31188BFF36F8FBFF34F8FFEE71F4656
:1021F000884600F013FD50B9019B53B14FF05003D6
:1022000083F31188BFF36F8FBFF34F8FFEE7002674
:102210005FE000265DE0E66841462046FFF7EAFD04
:10222000DFB9013DA563236813B900F0B5FD606017
:10223000236963B104F1100000F052FC38B1464B41
:102240004FF080521A60BFF34F8FBFF36F8F01F0D2
:1022500063F8012004B0BDE8F081E660636A002BFA
:10226000F5D004F1240000F03BFC0028EFD03A4BFD
:102270004FF080521A60BFF34F8FBFF36F8FE6E7C6
:1022800001F04AF80020E5E702A800F06BFC012607
:1022900029E0002384F8443031E0002384F84530FD
:1022A00033E001F017F8606800F0C8FC01F034F882
:1022B0003BE02046FFF7B0FD00F0B6FA09E020460B
:1022C000FFF7AAFD00F0B0FA2046FFF74BFD00280B
:1022D00040D100F0FFFFA56B002D9CD1019B002B8E
:1022E000CED0002ED0D001F017F800F007FA00F0A1
:1022F000F1FF94F844305BB2B3F1FF3FC9D094F8DA
:1023000045305BB2B3F1FF3FC7D001F005F801A93A
:1023100002A800F03BFC0028D1D12046FFF722FDA7
:102320000028C6D02368002BBBD0019904F12400FB
:1023300000F09EFB2046FFF76FFD00F075FA0028C5
:10234000C7D1054B4FF080521A60BFF34F8FBFF3D8
:102350006F8FBEE700207DE704ED00E00023072B30
:102360000CD8074A52F833200AB10133F7E7044A80
:1023700042F8331002EBC30358607047704700BF48
:10238000C03D002070B504460D46164600F0A2FF81
:1023900094F844305BB2B3F1FF3F0DD094F8453070
:1023A0005BB2B3F1FF3F0BD000F0B6FFA36B5BB1A4
:1023B0002046FFF731FD70BD002384F84430EDE77F
:1023C000002384F84530EFE73246294604F1240023
:1023D00000F068FBECE70000074B9B6A1B6833B119
:1023E000054B9A6AD268D2685268DA627047024B2B
:1023F0004FF0FF32DA6270473000002010B504461B
:10240000006B01F06DF9204601F06AF910BD2DE96D
:10241000F04780469946089D099F0A9C266B02F169
:102420008042013A06EB820626F0070600230F2BB6
:1024300007D8C85CE21882F83400CA5C0AB10133DC
:10244000F5E7002384F84330062D00D90625E56220
:1024500065644FF0000AC4F848A0201DFFF737FC60
:1024600004F11800FFF733FC2461C5F10705A561ED
:102470006462C4F84CA084F850A04A4641463046F5
:1024800000F0FEFE206007B13C60BDE8F087000070
:1024900070B5002407E004EB840293001048184450
:1024A000FFF70AFC0134062CF5D90E4C04F1BC06EA
:1024B0003046FFF701FC04F1D0052846FFF7FCFB8E
:1024C00004F11400FFF7F8FB04F1E400FFF7F4FB5C
:1024D0002046FFF7F1FBA662C4F8F85070BD00BFBC
:1024E000600000203000002038B5054600F0F2FE04
:1024F000264BD3F8FC200132C3F8FC20D3F800317E
:1025000073B1224BD3F804318BB9204BD3F800318F
:10251000DA6AEB6A9A420AD81C4BC3F8005106E00B
:102520001A4BC3F80051D3F8FC30012B2AD0174CBA
:10253000D4F808310133C4F80831EB6A01229A401B
:10254000D4F80C110A43C4F80C2104F1300003EB59
:1025500083039A00291D1044FFF7BCFB00F0DCFE4A
:10256000D4F804316BB1D4F80031DA6AEB6A9A42DC
:1025700007D2074B4FF080521A60BFF34F8FBFF363
:102580006F8F38BDFFF784FFD1E700BF3000002018
:1025900004ED00E070B504460E461F4BD3F8105111
:1025A000D3F800010430FFF7BBFB60B91A4BD3F836
:1025B0000021D16A012202FA01F1D3F80C2122EAAA
:1025C0000102C3F80C21B4F1FF3F12D02C44124B8E
:1025D000D3F800315C60A54214D80F4DA86AD5F835
:1025E00000110431FFF782FBEB6AA34212D9EC62BF
:1025F00010E0002EEAD00848D0F800110431FFF7AF
:1026000069FB07E0044BD3F8F800D3F8001104315C
:10261000FFF76CFB70BD00BF300000202DE9F043D8
:1026200085B00746884615469946900000F0DEFFC3
:10263000F8B10646542000F0D9FF0446A8B106635D
:10264000D4B10023039302940D9B01930C9B009340
:102650004B462A4641463846FFF7D9FE2046FFF74B
:1026600043FF012005B0BDE8F083304601F038F8A3
:10267000E6E74FF0FF30F5E74FF0FF30F2E70000FC
:1026800000B583B0194B01930023009380221849B1
:102690001848FFF7C3FF012807D0012808D0B0F180
:1026A000FF3F1AD003B05DF804FB00F0FDFBF4E738
:1026B0004FF0500383F31188BFF36F8FBFF34F8F39
:1026C0000D4B4FF0FF32DA620122C3F804210022E1
:1026D000C3F8102100F09AFEE4E74FF0500383F3B3
:1026E0001188BFF36F8FBFF34F8FFEE74C010020BF
:1026F00034400008B929000830000020034AD2F80D
:1027000018310133C2F81831704700BF3000002083
:10271000014BD3F810017047300000202DE9F04143
:10272000404BD3F81831002B6CD13E4BD3F81051ED
:102730000135C3F81051CDB99B6A1B6843B14FF006
:10274000500383F31188BFF36F8FBFF34F8FFEE702
:10275000344B9A6AD3F8F8109962C3F8F820D3F88A
:1027600020210132C3F82021FFF736FE2D4BDB6A12
:10277000AB423DD900242B4AD2F80031DB6A03EB8F
:10278000830399000A44136B012B42D9012440E0D2
:102790000124244B9B6A1B6863B3224B9B6ADB6852
:1027A000DE6873689D422AD306F104084046FFF7AD
:1027B000B7FAB36A1BB106F11800FFF7B1FAF36A72
:1027C00001229A40174FD7F80C110A43C7F80C2181
:1027D00007F1300003EB83039A0041461044FFF7F2
:1027E00079FAF26AD7F80031DB6A9A42D0D2D0E7A0
:1027F0000024CEE70B4B4FF0FF32DA62BBE7094A09
:10280000D362B8E7074AD2F824310133C2F8243141
:102810000024044BD3F8283103B101242046BDE83D
:10282000F08100BF30000020394BD3F8183143B994
:102830004FF0500383F31188BFF36F8FBFF34F8FB7
:10284000FEE770B500F046FD314BD3F81821013A90
:10285000C3F81821D3F81831002B54D12C4BD3F8DE
:10286000FC3023B9002400F057FD204670BD002441
:10287000274B5B692BB3264D2B6ADC6804F11800EB
:10288000FFF74EFA261D3046FFF74AFAE36A0122A7
:102890009A40D5F80C110A43C5F80C2105F1300017
:1028A00003EB83039A0031461044FFF713FAE26A00
:1028B000D5F80031DB6A9A42DAD30122C5F8282123
:1028C000D6E70CB1FFF788FD114BD3F8244164B172
:1028D000FFF724FF18B10E4B0122C3F82821013C59
:1028E000F6D10B4B0022C3F82421094BD3F8283131
:1028F0005BB1084B4FF080521A60BFF34F8FBFF3AC
:102900006F8F0124AFE70024ADE70024ABE700BFE1
:102910003000002004ED00E010B5B0B104460F4BCC
:10292000D3F8183143B14FF0500383F31188BFF34C
:102930006F8FBFF34F8FFEE7FFF7E0FE00212046C9
:10294000FFF728FEFFF770FF38B9054B4FF08052B4
:102950001A60BFF34F8FBFF36F8F10BD30000020A0
:1029600004ED00E038B5134BD3F814310BB3FFF787
:10297000C5FE104BD3F8E440FFF756FF002CF2D011
:1029800000F0A8FC0B4CD4F8F030DD68281DFFF7F0
:10299000C7F9D4F8FC30013BC4F8FC30D4F814314A
:1029A000013BC4F8143100F0B7FC2846FFF726FDC0
:1029B000D9E738BD3000002008B5FFF7D3FF064B3C
:1029C0001B6B012BF9D9054B4FF080521A60BFF3F6
:1029D0004F8FBFF36F8FF0E73000002004ED00E071
:1029E000224BD3F8183123B1204B0122C3F8282100
:1029F00070471E4A0023C2F82831D2F80C31B3FACE
:102A000083F3DBB2C3F11F0303EB830081000A44AD
:102A1000126B42B94FF0500383F31188BFF36F8FED
:102A2000BFF34F8FFEE710B4104A9900CC18A000F6
:102A30001044446B646844633032194488000830A1
:102A4000024494420BD0094903EB83039A000A44E1
:102A5000536BDB68C1F800315DF8044B7047616867
:102A60000248142202FB03025163ECE7300000200D
:102A700040B94FF0500383F31188BFF36F8FBFF35A
:102A80004F8FFEE710B50C46054BD3F800111831F7
:102A9000FFF72CF901212046FFF77CFD10BD00BF98
:102AA0003000002038B540B94FF0500383F311884F
:102AB000BFF36F8FBFF34F8FFEE70C461546074AF3
:102AC000D2F800111831FFF705F90DB14FF0FF34BE
:102AD00029462046FFF75EFD38BD00BF30000020CC
:102AE00038B5C368DC6844B94FF0500383F31188EC
:102AF000BFF36F8FBFF34F8FFEE704F11805284631
:102B0000FFF70EF9154BD3F8183103BB251D2846E6
:102B1000FFF706F9E36A01219940104AD2F80C0147
:102B20000143C2F80C11303203EB830398002946AD
:102B30001044FFF7CFF8E26A084BD3F80031DB6AA4
:102B40009A4209D90120054BC3F8280138BD29460E
:102B50000348FFF7BFF8EEE70020F7E7300000205A
:102B60004400002038B1084AD2F820110160D2F8A0
:102B70001021426070474FF0500383F31188BFF378
:102B80006F8FBFF34F8FFEE73000002038B550B194
:102B9000044689B94FF0500383F31188BFF36F8F58
:102BA000BFF34F8FFEE74FF0500383F31188BFF35D
:102BB0006F8FBFF34F8FFEE70D4600F08BFB124B7C
:102BC000D3F810112B68B3F1FF3F19D020680E4ADB
:102BD000D2F82021904202D062688A4212D96268FB
:102BE000881A834204D8012400F096FB204638BDA1
:102BF000521A13442B602046FFF7B4FF0024F3E77A
:102C00000024F1E70124EFE730000020024B01220D
:102C1000C3F82821704700BF30000020064BD3F8CE
:102C200004313BB1044BD3F818310BB1002070478D
:102C300002207047012070473000002000284DD04E
:102C400038B50546C26A2649D1F80011C96A8A42D8
:102C500016D28169002906DB2149D1F80011C96A21
:102C6000C1F107018161686902EB820291001D4A8E
:102C70000A44904205D01A4AD2F80021D26AEA6288
:102C800038BD2C1D2046FFF74BF8A0B11448D0F8F2
:102C90000031DB6AEB6201229A40D0F80C110A4342
:102CA000C0F80C21303003EB83039A002146104416
:102CB000FFF710F8E4E7EA6A02EB82039900084B99
:102CC0000B441B6B002BE1D1012393400449D1F845
:102CD0000C2122EA0302C1F80C21D7E7704700BF9C
:102CE000300000206000002000284DD038B5044698
:102CF000284AD2F80021824208D04FF0500383F3D3
:102D00001188BFF36F8FBFF34F8FFEE7826C42B91C
:102D10004FF0500383F31188BFF36F8FBFF34F8FD2
:102D2000FEE7013A8264C06A616C88422ED07ABBA9
:102D3000251D2846FEF7F4FF78B9E26A15491423E9
:102D400003FB02131B6B43B9012303FA02F2D1F810
:102D50000C3123EA0203C1F80C31626CE262C2F169
:102D60000703A361012404FA02F10A4BD3F80C0112
:102D70000143C3F80C1130332946142000FB023004
:102D8000FEF7A8FF204638BD002070470020FAE774
:102D90000020F8E730000020064BD3F800312BB1BB
:102DA000044BD3F80021936C01339364014BD3F8A7
:102DB0000001704730000020064B1A681368B3FA10
:102DC00083F35B09036013B9D36818687047002068
:102DD000704700BF5C01002008B54160006191426E
:102DE0000CD8D21A83699A4201D3012010E0011D48
:102DF000094B5868FEF77AFF002009E09A4201D299
:102E0000994206D2011D044B1868FEF76FFF00209F
:102E100008BD0120FCE700BF5C01002070B500F098
:102E200059FA0F4B9B6813B100F076FA70BD0C4C49
:102E300004F10C063046FEF73FFF04F1200528465A
:102E4000FEF73AFF2660656000220C210A20FFF79A
:102E50006BF8A0600028E7D00249FFF77FFAE3E7AC
:102E60005C0100203C4000082DE9F041079C41B97D
:102E70004FF0500383F31188BFF36F8FBFF34F8F71
:102E8000FEE70F4674B11D4616468046FFF7C6FFA3
:102E9000C4F80080A761E6612562069B6362201D7D
:102EA000FEF715FFBDE8F08100B583B0FFF7B6FF70
:102EB0000D4B9B685BB10D4B0193022300930023E4
:102EC0004FF480720A490B48FFF7A8FB40B94FF056
:102ED000500383F31188BFF36F8FBFF34F8FFEE76B
:102EE00003B05DF804FB00BF5C01002090010020EE
:102EF00044400008013200082DE9F04182B0054647
:102F00000E4617469846282000F070FB044640B154
:102F10000190089B009343463A4631462846FFF706
:102F2000A3FF204602B0BDE8F0810000C8B130B573
:102F300085B015460446174A906840B31A46019179
:102F40000295039405291DDCFFF768FE022811D0C5
:102F500000231A4601A90F488068FFF709F805B059
:102F600030BD4FF0500383F31188BFF36F8FBFF371
:102F70004F8FFEE70023089A01A906488068FEF7F4
:102F8000F7FFECE7002301A9FFF7B0F8E7E700201F
:102F9000E5E700BF5C010020204B1B681A68002A8F
:102FA00037D070B582B0DB681E68DC68251D284606
:102FB000FEF7B6FE636A20469847E369012B0AD004
:102FC000164B1B681A68002AEDD1144A516811602B
:102FD000536002B070BDA36933449E4207D2636060
:102FE000246129460D4B1868FEF780FEE8E70021B2
:102FF00000910B4632462046FFF798FF0028DFD1AC
:103000004FF0500383F31188BFF36F8FBFF34F8FDF
:10301000FEE7024A51681160536070475C0100206E
:1030200038B50546FFF774FB0446074B9B6B83429C
:1030300005D800232B60044B9C63204638BDFFF766
:10304000ABFF01232B60F6E75C01002070B582B076
:1030500005460E46144B1B68DB68DC68201DFEF736
:103060005FFEE369012B04D0636A2046984702B0F3
:1030700070BDA1692B46324629442046FFF7ACFEBD
:103080000028F1D0002100910B462A462046FFF788
:103090004DFF0028E8D14FF0500383F31188BFF3B0
:1030A0006F8FBFF34F8FFEE75C01002070B582B0D9
:1030B00006460C46FFF722FB01A8FFF7B1FF019B74
:1030C0001BBB05460CB9B04218D22CB1114B5B6842
:1030D0001C68B4FA84F464092246711B0D4B98688D
:1030E000FFF750F9FFF7A0FB88B90B4B4FF0805268
:1030F0001A60BFF34F8FBFF36F8F08E0FFF794FBA9
:1031000029463046FFF7A2FF01E0FFF78DFB02B032
:1031100070BD00BF5C01002004ED00E030B587B059
:1031200000231A4603A935488068FFF745F80028B0
:1031300061D0039B002BF3DB059C636913B1201D59
:10314000FEF7EEFD02A8FFF76BFF039B092BE7D804
:1031500001A252F823F000BF81310008813100083C
:103160008131000821310008C9310008EF31000821
:10317000813100088131000821310008C93100087F
:103180000499A5690B46024629442046FFF724FE10
:103190000028C5D0636A20469847E369012BBFD158
:1031A000A269002100910B46049802442046FFF7D3
:1031B000BDFE0028B4D14FF0500383F31188BFF354
:1031C0006F8FBFF34F8FFEE70499A16131B10346C2
:1031D000024601442046FFF7FFFDA1E74FF05003F0
:1031E00083F31188BFF36F8FBFF34F8FFEE7204645
:1031F00000F076FA94E707B030BD00BF5C01002014
:1032000000B583B001A8FFF7D7FD0199FFF74EFF86
:10321000FFF784FFF6E700000B4B1B68B3F1FF3F9D
:1032200008D04FF0500383F31188BFF36F8FBFF3C3
:103230004F8FFEE74FF0500383F31188BFF36F8F7A
:10324000BFF34F8FFEE700BF08000020064800686C
:10325000006880F3088862B661B6BFF34F8FBFF392
:103260006F8F00DF00BF000008ED00E0DFF80C000A
:10327000016841F4700101607047000088ED00E0D2
:103280004FF0807340F8043C21F0010140F8081C25
:10329000054B40F80C3C40F8202C6FF0020340F83E
:1032A000243C4438704700BF193200080000000079
:1032B000074B19680868B0E8F04F80F30988BFF33E
:1032C0006F8F4FF0000080F311887047AFF30080DC
:1032D000300100204FF0500383F31188BFF36F8F4C
:1032E000BFF34F8F0A4A136801331360012B00D0DC
:1032F0007047084B1B6813F0FF0FF9D04FF05003D5
:1033000083F31188BFF36F8FBFF34F8FFEE700BFCA
:103310000800002004ED00E0094B1B6843B94FF0A2
:10332000500383F31188BFF36F8FBFF34F8FFEE716
:10333000013B034A13600BB983F31188704700BF48
:103340000800002000000000000000000000000055
:10335000EFF30980BFF36F8F154B1A681EF0100F43
:1033600008BF20ED108A20E9F04F10604DF8043DB1
:103370004FF0500080F31188BFF34F8FBFF36F8F72
:10338000FFF72EFB4FF0000080F3118808BC19688E
:103390000868B0E8F04F1EF0100F08BFB0EC108ABC
:1033A00080F30988BFF36F8F704700BFAFF30080D1
:1033B0003001002008B54FF0500383F31188BFF3AC
:1033C0006F8FBFF34F8FFFF7A9F918B1034B4FF081
:1033D00080521A60002383F3118808BD04ED00E0D9
:1033E000064B1B68064AA2FB03239B09013B054AC7
:1033F0001360054B07221A60704700BF10000020C1
:10340000D34D621014E000E010E000E0314B1A6888
:10341000314B9A420DD02F4B1A68304B9A4211D142
:103420004FF0500383F31188BFF36F8FBFF34F8FBB
:10343000FEE74FF0500383F31188BFF36F8FBFF3A4
:103440004F8FFEE700B583B0254B1A78D2B20192B8
:10345000FF221A701B78DBB28DF803309DF8033021
:1034600003F050031F4A1370072353609DF8033085
:1034700013F0800F0AD01B4A5368013B53609DF83C
:1034800003305B00DBB28DF80330EFE7154A536879
:103490001B0203F4E0635360019BDBB2104A13701C
:1034A000114B1A6842F470021A601A6842F07042B6
:1034B0001A60FFF795FF0D4B00221A60FFF7D6FE4A
:1034C0000B4A136843F040431360FFF7BFFEFFF75A
:1034D000A3FE00BF00ED00E071C20F4170C20F41BA
:1034E00000E400E09801002020ED00E0080000204A
:1034F00034EF00E0EFF305830F2B0FD9104A9B5CEC
:10350000DBB2104A12789A4208D94FF0500383F385
:103510001188BFF36F8FBFF34F8FFEE70A4B1B6815
:1035200003F4E063074A5268934208D94FF050030E
:1035300083F31188BFF36F8FBFF34F8FFEE77047A0
:10354000F0E300E0980100200CED00E0104A12F0DA
:10355000070F1AD0D11D21F00701C1F57053134494
:103560000A460C490A60002048601344083B23F0D7
:1035700007038B6058601860981A50601360C86029
:1035800008614FF000434B6170474FF47053E8E718
:10359000B8010020A001002010B4134B1A68824229
:1035A0001BD359685C18844203D1406801445960B8
:1035B000184641684418A24213D10B4CA468A24299
:1035C0000DD05268114441601A6812680260984236
:1035D00000D018605DF8044B70471346DEE70460C6
:1035E000F5E70260F3E700BFA001002070B50446D4
:1035F000FFF784F8394B9B68BBB1384B5B691C42C1
:1036000062D1ACB1083414F0070F11D024F00704D4
:10361000083404F007035BB14FF0500383F31188C3
:10362000BFF36F8FBFF34F8FFEE7FFF78FFFE4E726
:10363000002C4BD0294B1B69A34249D3274B1D6853
:1036400001E02B4615466A68A24202D22A68002A87
:10365000F7D1224A9268AA423CD01E6808362A68EE
:103660001A606B681B1B102B10D9281910F0070F5C
:1036700008D04FF0500383F31188BFF36F8FBFF36F
:103680004F8FFEE743606C60FFF786FF6968134A5F
:1036900013695B1A1361D268934201D20F4AD36057
:1036A0000E4B5B690B436B6000232B60FFF7BCF88C
:1036B00016F0070F10D04FF0500383F31188BFF3BB
:1036C0006F8FBFF34F8FFEE70026EFE70026EDE791
:1036D0000026EBE70026E9E7304670BDA001002098
:1036E00080B338B50446A0F1080550F8042C1649FB
:1036F00049690A4208D14FF0500383F31188BFF3A0
:103700006F8FBFF34F8FFEE750F8080C40B14FF0BA
:10371000500383F31188BFF36F8FBFF34F8FFEE722
:1037200022EA010244F8042CFEF7E8FF54F8041CD6
:10373000054A13690B4413612846FFF72DFFFFF775
:1037400073F838BD704700BFA00100202DE9F04F8D
:103750008DB0002401947C4B1A6B42F010021A6366
:103760001A6B02F010020192019A02941A6B42F055
:1037700004021A631A6B02F004020292029A039482
:103780001A6B42F080021A631A6B02F080020392F5
:10379000039A04941A6B42F001021A631A6B02F046
:1037A00001020492049A05941A6B42F002021A6311
:1037B0001A6B02F002020592059A06941A6B42F007
:1037C00008021A631B6B03F008030693069B22464C
:1037D00008215E48FDF715FA012211465C48FDF705
:1037E00010FA22464FF610715A48FDF70AFA0825DA
:1037F00007950126089609940A9407A95348FDF7EE
:1038000015F90796089609940A9407A95048FDF7F8
:103810000DF907950225089509940A944FF00508BB
:10382000CDF82C8007A94A48FDF700F90796DFF884
:103830003091CDF820900994474F07A93846FDF7FD
:10384000F5F810230793089509940A944FF0060B96
:10385000CDF82CB007A93846FDF7E8F8E023079328
:10386000089509940A94CDF82C8007A93846FDF7ED
:10387000DDF84FF0040ACDF81CA00894099407A9BC
:103880003648FDF7D3F84FF47F4307930894099621
:1038900007A92E48FDF7CAF84FF4806307930895EF
:1038A00009940A94CDF82C8007A92C48FDF7BEF89E
:1038B0004FF610730793089609940A9407A92548B0
:1038C000FDF7B4F84FF4A4530793089509940A94AC
:1038D000CDF82CB007A91E48FDF7A8F84FF40073E7
:1038E00007930894099407A93846FDF79FF84FF409
:1038F000E0530793089509940A940A230B9307A9A8
:103900003846FDF793F8202307930894099407A9F4
:103910001048FDF78BF84FF41073079312230893A8
:1039200009960A94CDF82CA007A90C48FDF77EF85B
:103930000795CDF82090099407A90448FDF776F87B
:103940000DB0BDE8F08F00BF00380240001002400B
:1039500000080240000C0240000002400004024047
:103960000000121000B583B000220192094B196BC0
:1039700041F4001119631B6B03F400130193019BC5
:1039800005211020FCF7E2FD1020FCF713FE03B028
:103990005DF804FB0038024008B5022203490448E0
:1039A000FEF72CF80120FEF7FAF8F6E7003E0020BB
:1039B000843E002008B50523082202490248FDF78D
:1039C000ADFF08BD643E0020843E002008B5274AB4
:1039D0001378013303F0010348BF5B4213704FF4C7
:1039E00000512348FDF713F9224B1B7823B11F4BDD
:1039F0001B787BB9002200E000224FF480711C4844
:103A0000FDF7FFF81B4B5B7833B1184B1B788BB974
:103A1000002202E00122F0E700224FF40071144876
:103A2000FDF7EFF8134B9B7833B1104B1B788BB934
:103A3000002202E00122F0E700224FF480610C48EE
:103A4000FDF7DFF80B4BDB7833B1084B1B7853B92C
:103A5000002202E00122F0E700224FF40061044856
:103A6000FDF7CFF808BD0122F7E700BFB83D002001
:103A7000000C0240783E002038B51C4C4FF4807199
:103A80002046FDF7B7F81A4D28704FF40071204614
:103A9000FDF7B0F868704FF480612046FDF7AAF892
:103AA000A8704FF400612046FDF7A4F8E8704FF4C9
:103AB00080512046FDF79EF828714FF400512046B2
:103AC000FDF798F868714FF480412046FDF792F8B1
:103AD000A8714FF400412046FDF78CF8E8714FF4CF
:103AE00080512046FDF793F838BD00BF001002401A
:103AF000643E002008B5124B1A785B78303B1149C0
:103B00000B60412A0DD0442A0FD0532A0CD1012B2F
:103B10000FD00C4B1B683BB90B4B1868FEF792F8A3
:103B200002E00A4A0121D15408BD084A0021D154BB
:103B3000FAE74FF4FA61044B1868FEF74DF8E8E72E
:103B4000003E00200C000020803E0020783E002037
:103B500008B50268034B9A4200D008BDFCF7D2FCBE
:103B6000FBE700BF00000140FEE7000008B50B487E
:103B70000B4B03604FF4E133436000238360C36069
:103B800003610C2242618361C361FDF798FE00B9B5
:103B900008BD40F209110348FFF7E6FF843E00200C
:103BA000004400404C40000800B595B0002301934C
:103BB0002A4A116C41F080511164126C02F080525B
:103BC0000192019A0293264A116841F480411160E2
:103BD000126802F480420292029A022208920121A3
:103BE0000B9110210C910E920F9308231093322306
:103BF0001193042312930723139308A8FDF70CF8DD
:103C000018BB0F23039302230493002105914FF463
:103C1000C05306934FF4A053079303A8FDF734FA5B
:103C2000B8B9FDF7DDFA0F4BA3FB00308009FCF7B4
:103C3000CDFC0420FCF7E0FC00220F214FF0FF3008
:103C4000FCF784FC15B05DF804FBDE210648FFF7A5
:103C50008BFFEC210448FFF787FF00BF00380240CC
:103C600000700040D34D62104C40000800B589B090
:103C7000FCF72EFCFFF798FFFFF768FDFFF772FED9
:103C8000FFF774FF08A81B4B40F8043D00220121F8
:103C9000FDF78EFF184B186008A8184B40F8083D38
:103CA00000220121FDF784FF154D286008A8154B5F
:103CB00040F80C3D00220121FDF77AFF124C2060F4
:103CC0004FF4FA712868FDF787FF4FF4FA71206806
:103CD000FDF782FF6C460D4D0FCD0FC42B6823609E
:103CE00000216846FDF741FF094B1860FDF738FFDA
:103CF000FEE700BFB5390008803E0020CD3900083E
:103D0000743E0020793A0008703E0020044000080C
:103D10006C3E002010B582B000240094214B5A6CF8
:103D200042F480425A645A6C02F480420092009A33
:103D300001941A6C42F080521A641B6C03F0805399
:103D40000193019B0320FCF7EFFB224621466FF015
:103D50000B00FCF7FBFB224621466FF00A00FCF744
:103D6000F5FB224621466FF00900FCF7EFFB2246E7
:103D700021466FF00400FCF7E9FB224621466FF074
:103D80000300FCF7E3FB22460F216FF00100FCF774
:103D9000DDFB22460F214FF0FF30FCF7D7FB02B0CE
:103DA00010BD00BF003802400268204B9A4200D08C
:103DB000704730B587B004460025009503F5FA3307
:103DC0001A6C42F400321A641B6C03F40033009343
:103DD000009B0C23019302230293012303930323EB
:103DE00004930723059301A91148FCF71FFE11480E
:103DF000114B03604FF0006343608560C5604FF472
:103E000080630361456185614FF48073C36105621E
:103E10004562FCF77DFC20B9064B63639C6307B0E9
:103E200030BD82210548FFF79FFEF5E700440040C2
:103E300000000240043E0020886002406440000808
:103E400010B588B0002201461920FCF77FFB19202D
:103E5000FCF7B0FB00240194144B5A6C42F00102B1
:103E60005A645B6C03F001030193019B02A903A850
:103E7000FDF7DCF9FDF7CAF943000D48A0FB032369
:103E80009B0C013B0B480C4A026040F2E732C260D7
:103E9000436004618460FDF715FB10B1012008B098
:103EA00010BD0448FDF7E1F9F9E700BF0038024012
:103EB00083DE1B43C43E00200000014008B5FDF72F
:103EC000F3FE08BD08B50248FCF7C2FC08BD00BF00
:103ED000043E002008B50248FDF7D7F908BD00BF31
:103EE000C43E00200F49D1F8883043F47003C1F874
:103EF00088300D4B1A6842F001021A600020986069
:103F00001A6822F0847222F480321A60074A5A60DA
:103F10001A6822F480221A60D8604FF000638B6028
:103F2000704700BF00ED00E0003802401030002470
:103F3000DFF834D0002103E00C4B5B5843500431D0
:103F40000B480C4B42189A42F6D30B4A02E000236E
:103F500042F8043B094B9A42F9D3FFF7C3FF00F044
:103F600011F8FFF783FE7047000002209040000820
:103F7000000000201400002014000020003F00205A
:103F8000FEE7000070B50D4E0D4CA41BA4100025DB
:103F9000A54209D10B4E0C4C00F024F8A41BA41030
:103FA0000025A54205D170BD56F82530984701354A
:103FB000EEE756F8253098470135F2E788400008CB
:103FC00088400008884000088C40000810B5431E57
:103FD0000A44914200D110BD11F8014B03F8014F82
:103FE000F7E70000F8B500BFF8BC08BC9E46704774
:0C3FF000F8B500BFF8BC08BC9E46704746
:103FFC0000061016000610165C40000899390008DF
:10400C00000000000000000080000000D00700004D
:10401C00000000000000000001020304060708096C
:10402C00000000000102030449444C45000000005C
:10403C00546D725100000000546D72205376630071
:10404C002E2E2F5372632F6D61696E2E630000004C
:10405C0072657669636572002E2E2F5372632F730F
:10406C00746D3332663478785F68616C5F6D737031
:04407C002E630000AF
:0840800080C1FF7F0100000078
:04408800B501000876
:04408C009101000896
:104090000100000010000000AAAAAAAA0700000060
:0440A0000024F40004
:0400000508003F317F
:00000001FF
